:100000000C942A000C943C000C943C000C943C0092
:100010000C943C000C943C000C943C000C943C0070
:100020000C943C000C943C000C943C000C943C0060
:100030000C943C000C943C000C943C000C943C0050
:100040000C943C000C943C000C943C000C943C0040
:100050000C943C0011241FBECFE5D8E0DEBFCDBF1D
:1000600020E0A0E6B0E001C01D92A036B207E1F7A3
:100070000E943E000C946F000C9400000E946300EC
:100080000E9450000E946B00813321F484E60E949C
:100090005F00F8CF8233B1F788EC0E945F00F2CFA7
:1000A00087B3806287BB87B38F7B87BB87B380684A
:1000B00087BB87B3806187BB83E58DB908958FB90E
:1000C000779BFECF089588E18AB986E880BD86E0F7
:1000D00089B910BC08955F9BFECF8CB10895F89448
:0200E000FFCF50
:00000001FF
